{
  "contractName": "Funding",
  "abi": [
    {
      "inputs": [],
      "stateMutability": "nonpayable",
      "type": "constructor"
    },
    {
      "inputs": [
        {
          "internalType": "string",
          "name": "",
          "type": "string"
        },
        {
          "internalType": "address",
          "name": "",
          "type": "address"
        }
      ],
      "name": "donationAndValueListForProject",
      "outputs": [
        {
          "internalType": "uint256",
          "name": "",
          "type": "uint256"
        }
      ],
      "stateMutability": "view",
      "type": "function",
      "constant": true
    },
    {
      "inputs": [
        {
          "internalType": "address",
          "name": "",
          "type": "address"
        }
      ],
      "name": "institutionBalance",
      "outputs": [
        {
          "internalType": "uint256",
          "name": "",
          "type": "uint256"
        }
      ],
      "stateMutability": "view",
      "type": "function",
      "constant": true
    },
    {
      "inputs": [
        {
          "internalType": "address",
          "name": "",
          "type": "address"
        }
      ],
      "name": "institutionsRegistered",
      "outputs": [
        {
          "internalType": "bool",
          "name": "",
          "type": "bool"
        }
      ],
      "stateMutability": "view",
      "type": "function",
      "constant": true
    },
    {
      "inputs": [
        {
          "internalType": "string",
          "name": "",
          "type": "string"
        }
      ],
      "name": "permitteddProjects",
      "outputs": [
        {
          "internalType": "bool",
          "name": "",
          "type": "bool"
        }
      ],
      "stateMutability": "view",
      "type": "function",
      "constant": true
    },
    {
      "inputs": [
        {
          "internalType": "uint256",
          "name": "",
          "type": "uint256"
        }
      ],
      "name": "projects",
      "outputs": [
        {
          "internalType": "string",
          "name": "",
          "type": "string"
        }
      ],
      "stateMutability": "view",
      "type": "function",
      "constant": true
    },
    {
      "inputs": [
        {
          "internalType": "string",
          "name": "",
          "type": "string"
        }
      ],
      "name": "projectsToInstitution",
      "outputs": [
        {
          "internalType": "address",
          "name": "",
          "type": "address"
        }
      ],
      "stateMutability": "view",
      "type": "function",
      "constant": true
    },
    {
      "inputs": [
        {
          "internalType": "string",
          "name": "",
          "type": "string"
        }
      ],
      "name": "verificationsToProjects",
      "outputs": [
        {
          "internalType": "bytes",
          "name": "",
          "type": "bytes"
        }
      ],
      "stateMutability": "view",
      "type": "function",
      "constant": true
    },
    {
      "inputs": [
        {
          "internalType": "address",
          "name": "_institution",
          "type": "address"
        }
      ],
      "name": "registerInstitution",
      "outputs": [],
      "stateMutability": "nonpayable",
      "type": "function"
    },
    {
      "inputs": [
        {
          "internalType": "string",
          "name": "_projectName",
          "type": "string"
        },
        {
          "internalType": "address",
          "name": "_institution",
          "type": "address"
        }
      ],
      "name": "registerProjects",
      "outputs": [],
      "stateMutability": "nonpayable",
      "type": "function"
    },
    {
      "inputs": [
        {
          "internalType": "string",
          "name": "_project",
          "type": "string"
        },
        {
          "internalType": "address",
          "name": "_institution",
          "type": "address"
        }
      ],
      "name": "getDonate",
      "outputs": [],
      "stateMutability": "payable",
      "type": "function",
      "payable": true
    },
    {
      "inputs": [
        {
          "internalType": "string",
          "name": "_project",
          "type": "string"
        },
        {
          "internalType": "address",
          "name": "_institution",
          "type": "address"
        },
        {
          "internalType": "bytes",
          "name": "_verification",
          "type": "bytes"
        }
      ],
      "name": "postVerification",
      "outputs": [
        {
          "internalType": "bool",
          "name": "",
          "type": "bool"
        }
      ],
      "stateMutability": "nonpayable",
      "type": "function"
    },
    {
      "inputs": [
        {
          "internalType": "string",
          "name": "_project",
          "type": "string"
        },
        {
          "internalType": "address",
          "name": "_institution",
          "type": "address"
        }
      ],
      "name": "permited",
      "outputs": [],
      "stateMutability": "nonpayable",
      "type": "function"
    },
    {
      "inputs": [
        {
          "internalType": "string",
          "name": "_project",
          "type": "string"
        },
        {
          "internalType": "address payable",
          "name": "_institution",
          "type": "address"
        }
      ],
      "name": "trnasferEachFund",
      "outputs": [],
      "stateMutability": "nonpayable",
      "type": "function"
    }
  ],
  "bytecode": "0x608060405234801561001057600080fd5b503373ffffffffffffffffffffffffffffffffffffffff1660008054906101000a905050506118e2806100446000396000f3fe6080604052600436106100c25760003560e01c80637eadc9b21161007f578063e3cff8a711610059578063e3cff8a714610947578063ed7196d614610a2f578063f06d80fc14610b17578063f8c527cb14610b68576100c2565b80637eadc9b214610710578063920e844d14610777578063def1c51014610855576100c2565b8063107046bd146100c757806318de6d2e1461017b5780632e166409146102565780633f0bc00c1461033e57806367f0ff461461047f57806378ef811b1461057b575b600080fd5b3480156100d357600080fd5b50610100600480360360208110156100ea57600080fd5b8101908080359060200190929190505050610bcd565b6040518080602001828103825283818151815260200191508051906020019080838360005b83811015610140578082015181840152602081019050610125565b50505050905090810190601f16801561016d5780820380516001836020036101000a031916815260200191505b509250505060405180910390f35b6102546004803603604081101561019157600080fd5b81019080803590602001906401000000008111156101ae57600080fd5b8201836020820111156101c057600080fd5b803590602001918460018302840111640100000000831117156101e257600080fd5b91908080601f016020809104026020016040519081016040528093929190818152602001838380828437600081840152601f19601f820116905080830192505050505050509192919290803573ffffffffffffffffffffffffffffffffffffffff169060200190929190505050610c86565b005b34801561026257600080fd5b5061033c6004803603604081101561027957600080fd5b810190808035906020019064010000000081111561029657600080fd5b8201836020820111156102a857600080fd5b803590602001918460018302840111640100000000831117156102ca57600080fd5b91908080601f016020809104026020016040519081016040528093929190818152602001838380828437600081840152601f19601f820116905080830192505050505050509192919290803573ffffffffffffffffffffffffffffffffffffffff169060200190929190505050610e4c565b005b34801561034a57600080fd5b506104046004803603602081101561036157600080fd5b810190808035906020019064010000000081111561037e57600080fd5b82018360208201111561039057600080fd5b803590602001918460018302840111640100000000831117156103b257600080fd5b91908080601f016020809104026020016040519081016040528093929190818152602001838380828437600081840152601f19601f820116905080830192505050505050509192919290505050611058565b6040518080602001828103825283818151815260200191508051906020019080838360005b83811015610444578082015181840152602081019050610429565b50505050905090810190601f1680156104715780820380516001836020036101000a031916815260200191505b509250505060405180910390f35b34801561048b57600080fd5b50610565600480360360408110156104a257600080fd5b81019080803590602001906401000000008111156104bf57600080fd5b8201836020820111156104d157600080fd5b803590602001918460018302840111640100000000831117156104f357600080fd5b91908080601f016020809104026020016040519081016040528093929190818152602001838380828437600081840152601f19601f820116905080830192505050505050509192919290803573ffffffffffffffffffffffffffffffffffffffff16906020019092919050505061111e565b6040518082815260200191505060405180910390f35b34801561058757600080fd5b506106f86004803603606081101561059e57600080fd5b81019080803590602001906401000000008111156105bb57600080fd5b8201836020820111156105cd57600080fd5b803590602001918460018302840111640100000000831117156105ef57600080fd5b91908080601f016020809104026020016040519081016040528093929190818152602001838380828437600081840152601f19601f820116905080830192505050505050509192919290803573ffffffffffffffffffffffffffffffffffffffff1690602001909291908035906020019064010000000081111561067257600080fd5b82018360208201111561068457600080fd5b803590602001918460018302840111640100000000831117156106a657600080fd5b91908080601f016020809104026020016040519081016040528093929190818152602001838380828437600081840152601f19601f820116905080830192505050505050509192919290505050611159565b60405180821515815260200191505060405180910390f35b34801561071c57600080fd5b5061075f6004803603602081101561073357600080fd5b81019080803573ffffffffffffffffffffffffffffffffffffffff1690602001909291905050506112a5565b60405180821515815260200191505060405180910390f35b34801561078357600080fd5b5061083d6004803603602081101561079a57600080fd5b81019080803590602001906401000000008111156107b757600080fd5b8201836020820111156107c957600080fd5b803590602001918460018302840111640100000000831117156107eb57600080fd5b91908080601f016020809104026020016040519081016040528093929190818152602001838380828437600081840152601f19601f8201169050808301925050505050505091929192905050506112c5565b60405180821515815260200191505060405180910390f35b34801561086157600080fd5b5061091b6004803603602081101561087857600080fd5b810190808035906020019064010000000081111561089557600080fd5b8201836020820111156108a757600080fd5b803590602001918460018302840111640100000000831117156108c957600080fd5b91908080601f016020809104026020016040519081016040528093929190818152602001838380828437600081840152601f19601f8201169050808301925050505050505091929192905050506112fb565b604051808273ffffffffffffffffffffffffffffffffffffffff16815260200191505060405180910390f35b34801561095357600080fd5b50610a2d6004803603604081101561096a57600080fd5b810190808035906020019064010000000081111561098757600080fd5b82018360208201111561099957600080fd5b803590602001918460018302840111640100000000831117156109bb57600080fd5b91908080601f016020809104026020016040519081016040528093929190818152602001838380828437600081840152601f19601f820116905080830192505050505050509192919290803573ffffffffffffffffffffffffffffffffffffffff169060200190929190505050611344565b005b348015610a3b57600080fd5b50610b1560048036036040811015610a5257600080fd5b8101908080359060200190640100000000811115610a6f57600080fd5b820183602082011115610a8157600080fd5b80359060200191846001830284011164010000000083111715610aa357600080fd5b91908080601f016020809104026020016040519081016040528093929190818152602001838380828437600081840152601f19601f820116905080830192505050505050509192919290803573ffffffffffffffffffffffffffffffffffffffff1690602001909291905050506114c1565b005b348015610b2357600080fd5b50610b6660048036036020811015610b3a57600080fd5b81019080803573ffffffffffffffffffffffffffffffffffffffff169060200190929190505050611642565b005b348015610b7457600080fd5b50610bb760048036036020811015610b8b57600080fd5b81019080803573ffffffffffffffffffffffffffffffffffffffff169060200190929190505050611777565b6040518082815260200191505060405180910390f35b60018181548110610bda57fe5b906000526020600020016000915090508054600181600116156101000203166002900480601f016020809104026020016040519081016040528092919081815260200182805460018160011615610100020316600290048015610c7e5780601f10610c5357610100808354040283529160200191610c7e565b820191906000526020600020905b815481529060010190602001808311610c6157829003601f168201915b505050505081565b8073ffffffffffffffffffffffffffffffffffffffff166003836040518082805190602001908083835b60208310610cd35780518252602082019150602081019050602083039250610cb0565b6001836020036101000a038019825116818451168082178552505050505050905001915050908152602001604051809103902060009054906101000a900473ffffffffffffffffffffffffffffffffffffffff1673ffffffffffffffffffffffffffffffffffffffff1614610d4757600080fd5b346007836040518082805190602001908083835b60208310610d7e5780518252602082019150602081019050602083039250610d5b565b6001836020036101000a038019825116818451168082178552505050505050905001915050908152602001604051809103902060003373ffffffffffffffffffffffffffffffffffffffff1673ffffffffffffffffffffffffffffffffffffffff1681526020019081526020016000206000828254019250508190555034600460008373ffffffffffffffffffffffffffffffffffffffff1673ffffffffffffffffffffffffffffffffffffffff168152602001908152602001600020600082825401925050819055505050565b333373ffffffffffffffffffffffffffffffffffffffff168173ffffffffffffffffffffffffffffffffffffffff1614610e8557600080fd5b8173ffffffffffffffffffffffffffffffffffffffff166003846040518082805190602001908083835b60208310610ed25780518252602082019150602081019050602083039250610eaf565b6001836020036101000a038019825116818451168082178552505050505050905001915050908152602001604051809103902060009054906101000a900473ffffffffffffffffffffffffffffffffffffffff1673ffffffffffffffffffffffffffffffffffffffff1614610f4657600080fd5b600115156005846040518082805190602001908083835b60208310610f805780518252602082019150602081019050602083039250610f5d565b6001836020036101000a038019825116818451168082178552505050505050905001915050908152602001604051809103902060009054906101000a900460ff16151514610fcd57600080fd5b8173ffffffffffffffffffffffffffffffffffffffff166108fc600460008573ffffffffffffffffffffffffffffffffffffffff1673ffffffffffffffffffffffffffffffffffffffff168152602001908152602001600020549081150290604051600060405180830381858888f19350505050158015611052573d6000803e3d6000fd5b50505050565b6006818051602081018201805184825260208301602085012081835280955050505050506000915090508054600181600116156101000203166002900480601f0160208091040260200160405190810160405280929190818152602001828054600181600116156101000203166002900480156111165780601f106110eb57610100808354040283529160200191611116565b820191906000526020600020905b8154815290600101906020018083116110f957829003601f168201915b505050505081565b600782805160208101820180518482526020830160208501208183528095505050505050602052806000526040600020600091509150505481565b60008273ffffffffffffffffffffffffffffffffffffffff166003856040518082805190602001908083835b602083106111a85780518252602082019150602081019050602083039250611185565b6001836020036101000a038019825116818451168082178552505050505050905001915050908152602001604051809103902060009054906101000a900473ffffffffffffffffffffffffffffffffffffffff1673ffffffffffffffffffffffffffffffffffffffff161461121c57600080fd5b816006856040518082805190602001908083835b602083106112535780518252602082019150602081019050602083039250611230565b6001836020036101000a0380198251168184511680821785525050505050509050019150509081526020016040518091039020908051906020019061129992919061178f565b50600190509392505050565b60026020528060005260406000206000915054906101000a900460ff1681565b6005818051602081018201805184825260208301602085012081835280955050505050506000915054906101000a900460ff1681565b6003818051602081018201805184825260208301602085012081835280955050505050506000915054906101000a900473ffffffffffffffffffffffffffffffffffffffff1681565b3373ffffffffffffffffffffffffffffffffffffffff168173ffffffffffffffffffffffffffffffffffffffff161461137c57600080fd5b60011515600260008373ffffffffffffffffffffffffffffffffffffffff1673ffffffffffffffffffffffffffffffffffffffff16815260200190815260200160002060009054906101000a900460ff161515146113d957600080fd5b60018290806001815401808255809150506001900390600052602060002001600090919091909150908051906020019061141492919061180f565b50806003836040518082805190602001908083835b6020831061144c5780518252602082019150602081019050602083039250611429565b6001836020036101000a038019825116818451168082178552505050505050905001915050908152602001604051809103902060006101000a81548173ffffffffffffffffffffffffffffffffffffffff021916908373ffffffffffffffffffffffffffffffffffffffff1602179055505050565b333373ffffffffffffffffffffffffffffffffffffffff168173ffffffffffffffffffffffffffffffffffffffff16146114fa57600080fd5b8173ffffffffffffffffffffffffffffffffffffffff166003846040518082805190602001908083835b602083106115475780518252602082019150602081019050602083039250611524565b6001836020036101000a038019825116818451168082178552505050505050905001915050908152602001604051809103902060009054906101000a900473ffffffffffffffffffffffffffffffffffffffff1673ffffffffffffffffffffffffffffffffffffffff16146115bb57600080fd5b60016005846040518082805190602001908083835b602083106115f357805182526020820191506020810190506020830392506115d0565b6001836020036101000a038019825116818451168082178552505050505050905001915050908152602001604051809103902060006101000a81548160ff021916908315150217905550505050565b3373ffffffffffffffffffffffffffffffffffffffff168173ffffffffffffffffffffffffffffffffffffffff161461167a57600080fd5b60001515600260008373ffffffffffffffffffffffffffffffffffffffff1673ffffffffffffffffffffffffffffffffffffffff16815260200190815260200160002060009054906101000a900460ff161515146116d757600080fd5b6000600460003373ffffffffffffffffffffffffffffffffffffffff1673ffffffffffffffffffffffffffffffffffffffff168152602001908152602001600020819055506001600260008373ffffffffffffffffffffffffffffffffffffffff1673ffffffffffffffffffffffffffffffffffffffff16815260200190815260200160002060006101000a81548160ff02191690831515021790555050565b60046020528060005260406000206000915090505481565b828054600181600116156101000203166002900490600052602060002090601f016020900481019282601f106117d057805160ff19168380011785556117fe565b828001600101855582156117fe579182015b828111156117fd5782518255916020019190600101906117e2565b5b50905061180b919061188f565b5090565b828054600181600116156101000203166002900490600052602060002090601f016020900481019282601f1061185057805160ff191683800117855561187e565b8280016001018555821561187e579182015b8281111561187d578251825591602001919060010190611862565b5b50905061188b919061188f565b5090565b5b808211156118a8576000816000905550600101611890565b509056fea264697066735822122009f67809e90d20c63a7f6d15c1b0f3bf43a2df1890313171f0c89512e0dbd1a264736f6c634300060c0033",
  "immutableReferences": {},
  "source": "pragma solidity ^0.6.0;\r\n\r\ncontract Funding {\r\n\r\n    address owner;\r\n\r\n    constructor() public {\r\n        owner == msg.sender;\r\n    }\r\n\r\n    modifier onlyOwner(address _address) {\r\n        require(_address == msg.sender);\r\n        _;\r\n    }\r\n\r\n    string[] public projects;\r\n    \r\n    mapping(address => bool) public institutionsRegistered;\r\n\r\n    mapping(string => address) public projectsToInstitution;\r\n\r\n    mapping(address => uint256) public institutionBalance;\r\n\r\n    mapping(string => bool) public permitteddProjects;\r\n\r\n    mapping(string => bytes) public verificationsToProjects;\r\n\r\n    mapping(string => mapping(address=>uint256)) public donationAndValueListForProject;\r\n    \r\n    function registerInstitution(address _institution) public {\r\n        require(_institution == msg.sender);\r\n        require(institutionsRegistered[_institution] == false);\r\n        institutionBalance[msg.sender] = 0;   \r\n        institutionsRegistered[_institution] = true;\r\n    }\r\n\r\n    function registerProjects(string memory _projectName, address _institution) public {\r\n        require(_institution == msg.sender);\r\n        require(institutionsRegistered[_institution] == true);\r\n        projects.push(_projectName);\r\n        projectsToInstitution[_projectName] = _institution;\r\n    }\r\n\r\n    function getDonate(string memory _project, address _institution) public payable {\r\n        require(projectsToInstitution[_project] == _institution);\r\n\r\n        donationAndValueListForProject[_project][msg.sender] += msg.value;\r\n        institutionBalance[_institution] += msg.value;\r\n    }\r\n\r\n    //verification will be posted to blockchain\r\n    function postVerification(string memory _project, address _institution, bytes memory _verification) public returns(bool) {\r\n        require(projectsToInstitution[_project] == _institution);\r\n        verificationsToProjects[_project] = _verification;\r\n        return true;\r\n    }\r\n    //upper 20% will approve the verfication - in the application layer\r\n    //after approving process is finished, below funtion will be called\r\n    function permited(string memory _project, address _institution ) public  onlyOwner(msg.sender){\r\n        require(projectsToInstitution[_project] == _institution);\r\n\r\n        permitteddProjects[_project] = true;\r\n    }\r\n\r\n\r\n    function trnasferEachFund(string memory _project, address payable _institution) public onlyOwner(msg.sender) {\r\n        require(projectsToInstitution[_project] == _institution);\r\n        require(permitteddProjects[_project]==true);\r\n\r\n        _institution.transfer(institutionBalance[_institution]);\r\n    }\r\n\r\n    \r\n\r\n}",
  "sourcePath": "C:/Users/BaeJunho/Desktop/Token/contracts/Funding.sol",
  "compiler": {
    "name": "solc",
    "version": "0.6.12+commit.27d51765.Emscripten.clang"
  },
  "schemaVersion": "3.2.5",
  "updatedAt": "2020-10-06T19:53:42.983Z",
  "networkType": "ethereum",
  "devdoc": {
    "kind": "dev",
    "methods": {},
    "version": 1
  },
  "userdoc": {
    "kind": "user",
    "methods": {},
    "version": 1
  }
}