{
  "contractName": "RemainToken",
  "abi": [
    {
      "inputs": [],
      "stateMutability": "nonpayable",
      "type": "constructor"
    },
    {
      "anonymous": false,
      "inputs": [
        {
          "indexed": true,
          "internalType": "address",
          "name": "owner",
          "type": "address"
        },
        {
          "indexed": true,
          "internalType": "address",
          "name": "approved",
          "type": "address"
        },
        {
          "indexed": true,
          "internalType": "uint256",
          "name": "tokenId",
          "type": "uint256"
        }
      ],
      "name": "Approval",
      "type": "event"
    },
    {
      "anonymous": false,
      "inputs": [
        {
          "indexed": true,
          "internalType": "address",
          "name": "owner",
          "type": "address"
        },
        {
          "indexed": true,
          "internalType": "address",
          "name": "operator",
          "type": "address"
        },
        {
          "indexed": false,
          "internalType": "bool",
          "name": "approved",
          "type": "bool"
        }
      ],
      "name": "ApprovalForAll",
      "type": "event"
    },
    {
      "anonymous": false,
      "inputs": [
        {
          "indexed": true,
          "internalType": "string",
          "name": "_name",
          "type": "string"
        },
        {
          "indexed": true,
          "internalType": "string",
          "name": "_description",
          "type": "string"
        },
        {
          "indexed": true,
          "internalType": "uint256",
          "name": "_id",
          "type": "uint256"
        }
      ],
      "name": "Course",
      "type": "event"
    },
    {
      "anonymous": false,
      "inputs": [
        {
          "indexed": true,
          "internalType": "string",
          "name": "_course",
          "type": "string"
        },
        {
          "indexed": true,
          "internalType": "string",
          "name": "_locname",
          "type": "string"
        },
        {
          "indexed": false,
          "internalType": "string",
          "name": "_description",
          "type": "string"
        },
        {
          "indexed": true,
          "internalType": "uint256",
          "name": "_id",
          "type": "uint256"
        }
      ],
      "name": "Locations",
      "type": "event"
    },
    {
      "anonymous": false,
      "inputs": [
        {
          "indexed": true,
          "internalType": "address",
          "name": "_from",
          "type": "address"
        },
        {
          "indexed": true,
          "internalType": "address",
          "name": "_to",
          "type": "address"
        },
        {
          "indexed": true,
          "internalType": "uint256",
          "name": "_tokenId",
          "type": "uint256"
        }
      ],
      "name": "Transfer",
      "type": "event"
    },
    {
      "inputs": [
        {
          "internalType": "address",
          "name": "to",
          "type": "address"
        },
        {
          "internalType": "uint256",
          "name": "tokenId",
          "type": "uint256"
        }
      ],
      "name": "approve",
      "outputs": [],
      "stateMutability": "nonpayable",
      "type": "function"
    },
    {
      "inputs": [
        {
          "internalType": "address",
          "name": "owner",
          "type": "address"
        }
      ],
      "name": "balanceOf",
      "outputs": [
        {
          "internalType": "uint256",
          "name": "",
          "type": "uint256"
        }
      ],
      "stateMutability": "view",
      "type": "function",
      "constant": true
    },
    {
      "inputs": [],
      "name": "baseURI",
      "outputs": [
        {
          "internalType": "string",
          "name": "",
          "type": "string"
        }
      ],
      "stateMutability": "view",
      "type": "function",
      "constant": true
    },
    {
      "inputs": [
        {
          "internalType": "uint256",
          "name": "",
          "type": "uint256"
        },
        {
          "internalType": "uint256",
          "name": "",
          "type": "uint256"
        }
      ],
      "name": "courseToLocations",
      "outputs": [
        {
          "internalType": "uint256",
          "name": "",
          "type": "uint256"
        }
      ],
      "stateMutability": "view",
      "type": "function",
      "constant": true
    },
    {
      "inputs": [
        {
          "internalType": "uint256",
          "name": "",
          "type": "uint256"
        }
      ],
      "name": "courses",
      "outputs": [
        {
          "internalType": "uint256",
          "name": "",
          "type": "uint256"
        }
      ],
      "stateMutability": "view",
      "type": "function",
      "constant": true
    },
    {
      "inputs": [
        {
          "internalType": "uint256",
          "name": "tokenId",
          "type": "uint256"
        }
      ],
      "name": "getApproved",
      "outputs": [
        {
          "internalType": "address",
          "name": "",
          "type": "address"
        }
      ],
      "stateMutability": "view",
      "type": "function",
      "constant": true
    },
    {
      "inputs": [
        {
          "internalType": "address",
          "name": "owner",
          "type": "address"
        },
        {
          "internalType": "address",
          "name": "operator",
          "type": "address"
        }
      ],
      "name": "isApprovedForAll",
      "outputs": [
        {
          "internalType": "bool",
          "name": "",
          "type": "bool"
        }
      ],
      "stateMutability": "view",
      "type": "function",
      "constant": true
    },
    {
      "inputs": [],
      "name": "name",
      "outputs": [
        {
          "internalType": "string",
          "name": "",
          "type": "string"
        }
      ],
      "stateMutability": "view",
      "type": "function",
      "constant": true
    },
    {
      "inputs": [],
      "name": "owner",
      "outputs": [
        {
          "internalType": "address",
          "name": "",
          "type": "address"
        }
      ],
      "stateMutability": "view",
      "type": "function",
      "constant": true
    },
    {
      "inputs": [
        {
          "internalType": "uint256",
          "name": "tokenId",
          "type": "uint256"
        }
      ],
      "name": "ownerOf",
      "outputs": [
        {
          "internalType": "address",
          "name": "",
          "type": "address"
        }
      ],
      "stateMutability": "view",
      "type": "function",
      "constant": true
    },
    {
      "inputs": [
        {
          "internalType": "address",
          "name": "from",
          "type": "address"
        },
        {
          "internalType": "address",
          "name": "to",
          "type": "address"
        },
        {
          "internalType": "uint256",
          "name": "tokenId",
          "type": "uint256"
        }
      ],
      "name": "safeTransferFrom",
      "outputs": [],
      "stateMutability": "nonpayable",
      "type": "function"
    },
    {
      "inputs": [
        {
          "internalType": "address",
          "name": "from",
          "type": "address"
        },
        {
          "internalType": "address",
          "name": "to",
          "type": "address"
        },
        {
          "internalType": "uint256",
          "name": "tokenId",
          "type": "uint256"
        },
        {
          "internalType": "bytes",
          "name": "_data",
          "type": "bytes"
        }
      ],
      "name": "safeTransferFrom",
      "outputs": [],
      "stateMutability": "nonpayable",
      "type": "function"
    },
    {
      "inputs": [
        {
          "internalType": "address",
          "name": "operator",
          "type": "address"
        },
        {
          "internalType": "bool",
          "name": "approved",
          "type": "bool"
        }
      ],
      "name": "setApprovalForAll",
      "outputs": [],
      "stateMutability": "nonpayable",
      "type": "function"
    },
    {
      "inputs": [
        {
          "internalType": "bytes4",
          "name": "interfaceId",
          "type": "bytes4"
        }
      ],
      "name": "supportsInterface",
      "outputs": [
        {
          "internalType": "bool",
          "name": "",
          "type": "bool"
        }
      ],
      "stateMutability": "view",
      "type": "function",
      "constant": true
    },
    {
      "inputs": [],
      "name": "symbol",
      "outputs": [
        {
          "internalType": "string",
          "name": "",
          "type": "string"
        }
      ],
      "stateMutability": "view",
      "type": "function",
      "constant": true
    },
    {
      "inputs": [
        {
          "internalType": "uint256",
          "name": "index",
          "type": "uint256"
        }
      ],
      "name": "tokenByIndex",
      "outputs": [
        {
          "internalType": "uint256",
          "name": "",
          "type": "uint256"
        }
      ],
      "stateMutability": "view",
      "type": "function",
      "constant": true
    },
    {
      "inputs": [
        {
          "internalType": "address",
          "name": "owner",
          "type": "address"
        },
        {
          "internalType": "uint256",
          "name": "index",
          "type": "uint256"
        }
      ],
      "name": "tokenOfOwnerByIndex",
      "outputs": [
        {
          "internalType": "uint256",
          "name": "",
          "type": "uint256"
        }
      ],
      "stateMutability": "view",
      "type": "function",
      "constant": true
    },
    {
      "inputs": [
        {
          "internalType": "uint256",
          "name": "tokenId",
          "type": "uint256"
        }
      ],
      "name": "tokenURI",
      "outputs": [
        {
          "internalType": "string",
          "name": "",
          "type": "string"
        }
      ],
      "stateMutability": "view",
      "type": "function",
      "constant": true
    },
    {
      "inputs": [],
      "name": "totalSupply",
      "outputs": [
        {
          "internalType": "uint256",
          "name": "",
          "type": "uint256"
        }
      ],
      "stateMutability": "view",
      "type": "function",
      "constant": true
    },
    {
      "inputs": [
        {
          "internalType": "address",
          "name": "",
          "type": "address"
        },
        {
          "internalType": "uint256",
          "name": "",
          "type": "uint256"
        },
        {
          "internalType": "uint256",
          "name": "",
          "type": "uint256"
        }
      ],
      "name": "userLocationVerified",
      "outputs": [
        {
          "internalType": "uint256",
          "name": "",
          "type": "uint256"
        }
      ],
      "stateMutability": "view",
      "type": "function",
      "constant": true
    },
    {
      "inputs": [
        {
          "internalType": "string",
          "name": "course",
          "type": "string"
        },
        {
          "internalType": "string",
          "name": "description",
          "type": "string"
        }
      ],
      "name": "registerCourse",
      "outputs": [],
      "stateMutability": "nonpayable",
      "type": "function"
    },
    {
      "inputs": [
        {
          "internalType": "string",
          "name": "_course",
          "type": "string"
        },
        {
          "internalType": "string",
          "name": "_location",
          "type": "string"
        },
        {
          "internalType": "string",
          "name": "description",
          "type": "string"
        }
      ],
      "name": "registerLocations",
      "outputs": [],
      "stateMutability": "nonpayable",
      "type": "function"
    },
    {
      "inputs": [
        {
          "internalType": "address",
          "name": "_user",
          "type": "address"
        },
        {
          "internalType": "string",
          "name": "_location",
          "type": "string"
        },
        {
          "internalType": "string",
          "name": "_course",
          "type": "string"
        }
      ],
      "name": "verifyUserLocation",
      "outputs": [],
      "stateMutability": "nonpayable",
      "type": "function"
    },
    {
      "inputs": [
        {
          "internalType": "address",
          "name": "_user",
          "type": "address"
        },
        {
          "internalType": "string",
          "name": "_location",
          "type": "string"
        },
        {
          "internalType": "string",
          "name": "_course",
          "type": "string"
        }
      ],
      "name": "getUserLocationVerified",
      "outputs": [
        {
          "internalType": "bool",
          "name": "",
          "type": "bool"
        }
      ],
      "stateMutability": "view",
      "type": "function",
      "constant": true
    },
    {
      "inputs": [
        {
          "internalType": "address",
          "name": "_user",
          "type": "address"
        },
        {
          "internalType": "string",
          "name": "_location",
          "type": "string"
        },
        {
          "internalType": "string",
          "name": "_course",
          "type": "string"
        }
      ],
      "name": "verifyUserCouseToMintToken",
      "outputs": [
        {
          "internalType": "bool",
          "name": "",
          "type": "bool"
        }
      ],
      "stateMutability": "nonpayable",
      "type": "function"
    },
    {
      "inputs": [
        {
          "internalType": "string",
          "name": "_course",
          "type": "string"
        },
        {
          "internalType": "address",
          "name": "_user",
          "type": "address"
        },
        {
          "internalType": "string",
          "name": "_tokenURI",
          "type": "string"
        }
      ],
      "name": "mint",
      "outputs": [],
      "stateMutability": "nonpayable",
      "type": "function"
    },
    {
      "inputs": [
        {
          "internalType": "address",
          "name": "_from",
          "type": "address"
        },
        {
          "internalType": "address",
          "name": "_to",
          "type": "address"
        },
        {
          "internalType": "uint256",
          "name": "_tokenId",
          "type": "uint256"
        }
      ],
      "name": "transferFrom",
      "outputs": [],
      "stateMutability": "nonpayable",
      "type": "function"
    },
    {
      "inputs": [
        {
          "internalType": "address",
          "name": "_owner",
          "type": "address"
        }
      ],
      "name": "_getOwnedTokensCount",
      "outputs": [
        {
          "internalType": "uint256",
          "name": "",
          "type": "uint256"
        }
      ],
      "stateMutability": "view",
      "type": "function",
      "constant": true
    }
  ],
  "bytecode": "0x60806040526040518060400160405280601681526020017f687474703a2f2f6c6f63616c686f73743a333030302f00000000000000000000815250600a908051906020019062000051929190620002b0565b503480156200005f57600080fd5b506040518060400160405280600b81526020017f52656d61696e546f6b656e0000000000000000000000000000000000000000008152506040518060400160405280600b81526020017f52454d41494e544f4b454e000000000000000000000000000000000000000000815250620000e46301ffc9a760e01b620001a760201b60201c565b8160069080519060200190620000fc929190620002b0565b50806007908051906020019062000115929190620002b0565b506200012e6380ac58cd60e01b620001a760201b60201c565b62000146635b5e139f60e01b620001a760201b60201c565b6200015e63780e9d6360e01b620001a760201b60201c565b505033601360006101000a81548173ffffffffffffffffffffffffffffffffffffffff021916908373ffffffffffffffffffffffffffffffffffffffff16021790555062000356565b63ffffffff60e01b817bffffffffffffffffffffffffffffffffffffffffffffffffffffffff1916141562000244576040517f08c379a000000000000000000000000000000000000000000000000000000000815260040180806020018281038252601c8152602001807f4552433136353a20696e76616c696420696e746572666163652069640000000081525060200191505060405180910390fd5b6001600080837bffffffffffffffffffffffffffffffffffffffffffffffffffffffff19167bffffffffffffffffffffffffffffffffffffffffffffffffffffffff1916815260200190815260200160002060006101000a81548160ff02191690831515021790555050565b828054600181600116156101000203166002900490600052602060002090601f016020900481019282601f10620002f357805160ff191683800117855562000324565b8280016001018555821562000324579182015b828111156200032357825182559160200191906001019062000306565b5b50905062000333919062000337565b5090565b5b808211156200035257600081600090555060010162000338565b5090565b61458680620003666000396000f3fe608060405234801561001057600080fd5b50600436106101c45760003560e01c80636352211e116100f957806396f979d211610097578063b88d4fde11610071578063b88d4fde14611162578063c87b56dd14611267578063d50381a81461130e578063e985e9c51461135a576101c4565b806396f979d214610f5e578063a22cb46514610fa0578063ad6cf0a514610ff0576101c4565b806370a08231116100d357806370a0823114610cc7578063782a669214610d1f5780638da5cb5b14610ea757806395d89b4114610edb576101c4565b80636352211e14610b8057806369aa888714610bd85780636c0360eb14610c44576101c4565b806318160ddd116101665780632f745c59116101405780632f745c59146108e657806342842e0e146109485780634f6ccce7146109b65780634fed9753146109f8576101c4565b806318160ddd1461080257806323b872dd146108205780632ee60eb91461088e576101c4565b8063081812fc116101a2578063081812fc14610498578063091dbab1146104f0578063095ea7b3146106625780630fd88c7a146106b0576101c4565b806301ffc9a7146101c957806306c5ca601461022c57806306fdde0314610415575b600080fd5b610214600480360360208110156101df57600080fd5b8101908080357bffffffffffffffffffffffffffffffffffffffffffffffffffffffff191690602001909291905050506113d4565b60405180821515815260200191505060405180910390f35b6104136004803603606081101561024257600080fd5b810190808035906020019064010000000081111561025f57600080fd5b82018360208201111561027157600080fd5b8035906020019184600183028401116401000000008311171561029357600080fd5b91908080601f016020809104026020016040519081016040528093929190818152602001838380828437600081840152601f19601f820116905080830192505050505050509192919290803590602001906401000000008111156102f657600080fd5b82018360208201111561030857600080fd5b8035906020019184600183028401116401000000008311171561032a57600080fd5b91908080601f016020809104026020016040519081016040528093929190818152602001838380828437600081840152601f19601f8201169050808301925050505050505091929192908035906020019064010000000081111561038d57600080fd5b82018360208201111561039f57600080fd5b803590602001918460018302840111640100000000831117156103c157600080fd5b91908080601f016020809104026020016040519081016040528093929190818152602001838380828437600081840152601f19601f82011690508083019250505050505050919291929050505061143b565b005b61041d611701565b6040518080602001828103825283818151815260200191508051906020019080838360005b8381101561045d578082015181840152602081019050610442565b50505050905090810190601f16801561048a5780820380516001836020036101000a031916815260200191505b509250505060405180910390f35b6104c4600480360360208110156104ae57600080fd5b81019080803590602001909291905050506117a3565b604051808273ffffffffffffffffffffffffffffffffffffffff16815260200191505060405180910390f35b6106606004803603606081101561050657600080fd5b81019080803573ffffffffffffffffffffffffffffffffffffffff1690602001909291908035906020019064010000000081111561054357600080fd5b82018360208201111561055557600080fd5b8035906020019184600183028401116401000000008311171561057757600080fd5b91908080601f016020809104026020016040519081016040528093929190818152602001838380828437600081840152601f19601f820116905080830192505050505050509192919290803590602001906401000000008111156105da57600080fd5b8201836020820111156105ec57600080fd5b8035906020019184600183028401116401000000008311171561060e57600080fd5b91908080601f016020809104026020016040519081016040528093929190818152602001838380828437600081840152601f19601f82011690508083019250505050505050919291929050505061183e565b005b6106ae6004803603604081101561067857600080fd5b81019080803573ffffffffffffffffffffffffffffffffffffffff169060200190929190803590602001909291905050506119e2565b005b610800600480360360408110156106c657600080fd5b81019080803590602001906401000000008111156106e357600080fd5b8201836020820111156106f557600080fd5b8035906020019184600183028401116401000000008311171561071757600080fd5b91908080601f016020809104026020016040519081016040528093929190818152602001838380828437600081840152601f19601f8201169050808301925050505050505091929192908035906020019064010000000081111561077a57600080fd5b82018360208201111561078c57600080fd5b803590602001918460018302840111640100000000831117156107ae57600080fd5b91908080601f016020809104026020016040519081016040528093929190818152602001838380828437600081840152601f19601f820116905080830192505050505050509192919290505050611b26565b005b61080a611cd6565b6040518082815260200191505060405180910390f35b61088c6004803603606081101561083657600080fd5b81019080803573ffffffffffffffffffffffffffffffffffffffff169060200190929190803573ffffffffffffffffffffffffffffffffffffffff16906020019092919080359060200190929190505050611ce7565b005b6108d0600480360360208110156108a457600080fd5b81019080803573ffffffffffffffffffffffffffffffffffffffff169060200190929190505050611da1565b6040518082815260200191505060405180910390f35b610932600480360360408110156108fc57600080fd5b81019080803573ffffffffffffffffffffffffffffffffffffffff16906020019092919080359060200190929190505050611dea565b6040518082815260200191505060405180910390f35b6109b46004803603606081101561095e57600080fd5b81019080803573ffffffffffffffffffffffffffffffffffffffff169060200190929190803573ffffffffffffffffffffffffffffffffffffffff16906020019092919080359060200190929190505050611e45565b005b6109e2600480360360208110156109cc57600080fd5b8101908080359060200190929190505050611e65565b6040518082815260200191505060405180910390f35b610b6860048036036060811015610a0e57600080fd5b81019080803573ffffffffffffffffffffffffffffffffffffffff16906020019092919080359060200190640100000000811115610a4b57600080fd5b820183602082011115610a5d57600080fd5b80359060200191846001830284011164010000000083111715610a7f57600080fd5b91908080601f016020809104026020016040519081016040528093929190818152602001838380828437600081840152601f19601f82011690508083019250505050505050919291929080359060200190640100000000811115610ae257600080fd5b820183602082011115610af457600080fd5b80359060200191846001830284011164010000000083111715610b1657600080fd5b91908080601f016020809104026020016040519081016040528093929190818152602001838380828437600081840152601f19601f820116905080830192505050505050509192919290505050611e88565b60405180821515815260200191505060405180910390f35b610bac60048036036020811015610b9657600080fd5b81019080803590602001909291905050506120a3565b604051808273ffffffffffffffffffffffffffffffffffffffff16815260200191505060405180910390f35b610c2e60048036036060811015610bee57600080fd5b81019080803573ffffffffffffffffffffffffffffffffffffffff16906020019092919080359060200190929190803590602001909291905050506120da565b6040518082815260200191505060405180910390f35b610c4c612115565b6040518080602001828103825283818151815260200191508051906020019080838360005b83811015610c8c578082015181840152602081019050610c71565b50505050905090810190601f168015610cb95780820380516001836020036101000a031916815260200191505b509250505060405180910390f35b610d0960048036036020811015610cdd57600080fd5b81019080803573ffffffffffffffffffffffffffffffffffffffff1690602001909291905050506121b7565b6040518082815260200191505060405180910390f35b610e8f60048036036060811015610d3557600080fd5b81019080803573ffffffffffffffffffffffffffffffffffffffff16906020019092919080359060200190640100000000811115610d7257600080fd5b820183602082011115610d8457600080fd5b80359060200191846001830284011164010000000083111715610da657600080fd5b91908080601f016020809104026020016040519081016040528093929190818152602001838380828437600081840152601f19601f82011690508083019250505050505050919291929080359060200190640100000000811115610e0957600080fd5b820183602082011115610e1b57600080fd5b80359060200191846001830284011164010000000083111715610e3d57600080fd5b91908080601f016020809104026020016040519081016040528093929190818152602001838380828437600081840152601f19601f82011690508083019250505050505050919291929050505061228c565b60405180821515815260200191505060405180910390f35b610eaf6124dd565b604051808273ffffffffffffffffffffffffffffffffffffffff16815260200191505060405180910390f35b610ee3612503565b6040518080602001828103825283818151815260200191508051906020019080838360005b83811015610f23578082015181840152602081019050610f08565b50505050905090810190601f168015610f505780820380516001836020036101000a031916815260200191505b509250505060405180910390f35b610f8a60048036036020811015610f7457600080fd5b81019080803590602001909291905050506125a5565b6040518082815260200191505060405180910390f35b610fee60048036036040811015610fb657600080fd5b81019080803573ffffffffffffffffffffffffffffffffffffffff1690602001909291908035151590602001909291905050506125c6565b005b6111606004803603606081101561100657600080fd5b810190808035906020019064010000000081111561102357600080fd5b82018360208201111561103557600080fd5b8035906020019184600183028401116401000000008311171561105757600080fd5b91908080601f016020809104026020016040519081016040528093929190818152602001838380828437600081840152601f19601f820116905080830192505050505050509192919290803573ffffffffffffffffffffffffffffffffffffffff169060200190929190803590602001906401000000008111156110da57600080fd5b8201836020820111156110ec57600080fd5b8035906020019184600183028401116401000000008311171561110e57600080fd5b91908080601f016020809104026020016040519081016040528093929190818152602001838380828437600081840152601f19601f82011690508083019250505050505050919291929050505061277c565b005b6112656004803603608081101561117857600080fd5b81019080803573ffffffffffffffffffffffffffffffffffffffff169060200190929190803573ffffffffffffffffffffffffffffffffffffffff16906020019092919080359060200190929190803590602001906401000000008111156111df57600080fd5b8201836020820111156111f157600080fd5b8035906020019184600183028401116401000000008311171561121357600080fd5b91908080601f016020809104026020016040519081016040528093929190818152602001838380828437600081840152601f19601f8201169050808301925050505050505091929192905050506128b3565b005b6112936004803603602081101561127d57600080fd5b810190808035906020019092919050505061292b565b6040518080602001828103825283818151815260200191508051906020019080838360005b838110156112d35780820151818401526020810190506112b8565b50505050905090810190601f1680156113005780820380516001836020036101000a031916815260200191505b509250505060405180910390f35b6113446004803603604081101561132457600080fd5b810190808035906020019092919080359060200190929190505050612c14565b6040518082815260200191505060405180910390f35b6113bc6004803603604081101561137057600080fd5b81019080803573ffffffffffffffffffffffffffffffffffffffff169060200190929190803573ffffffffffffffffffffffffffffffffffffffff169060200190929190505050612c42565b60405180821515815260200191505060405180910390f35b6000806000837bffffffffffffffffffffffffffffffffffffffffffffffffffffffff19167bffffffffffffffffffffffffffffffffffffffffffffffffffffffff1916815260200190815260200160002060009054906101000a900460ff169050919050565b6000836040516020018080602001828103825283818151815260200191508051906020019080838360005b83811015611481578082015181840152602081019050611466565b50505050905090810190601f1680156114ae5780820380516001836020036101000a031916815260200191505b50925050506040516020818303038152906040528051906020012060001c90506000836040516020018080602001828103825283818151815260200191508051906020019080838360005b838110156115145780820151818401526020810190506114f9565b50505050905090810190601f1680156115415780820380516001836020036101000a031916815260200191505b50925050506040516020818303038152906040528051906020012060001c90506015600083815260200190815260200160002081908060018154018082558091505060019003906000526020600020016000909190919091505580846040518082805190602001908083835b602083106115d057805182526020820191506020810190506020830392506115ad565b6001836020036101000a0380198251168184511680821785525050505050509050019150506040518091039020866040518082805190602001908083835b60208310611631578051825260208201915060208101905060208303925061160e565b6001836020036101000a03801982511681845116808217855250505050505090500191505060405180910390207fd3fc1fb1ab1fcc3e1e650442d04e02c7ffd98d91469dee63733c8829f136899e866040518080602001828103825283818151815260200191508051906020019080838360005b838110156116c05780820151818401526020810190506116a5565b50505050905090810190601f1680156116ed5780820380516001836020036101000a031916815260200191505b509250505060405180910390a45050505050565b606060068054600181600116156101000203166002900480601f0160208091040260200160405190810160405280929190818152602001828054600181600116156101000203166002900480156117995780601f1061176e57610100808354040283529160200191611799565b820191906000526020600020905b81548152906001019060200180831161177c57829003601f168201915b5050505050905090565b60006117ae82612cd6565b611803576040517f08c379a000000000000000000000000000000000000000000000000000000000815260040180806020018281038252602c81526020018061444f602c913960400191505060405180910390fd5b6004600083815260200190815260200160002060009054906101000a900473ffffffffffffffffffffffffffffffffffffffff169050919050565b6000826040516020018080602001828103825283818151815260200191508051906020019080838360005b83811015611884578082015181840152602081019050611869565b50505050905090810190601f1680156118b15780820380516001836020036101000a031916815260200191505b50925050506040516020818303038152906040528051906020012060001c90506000826040516020018080602001828103825283818151815260200191508051906020019080838360005b838110156119175780820151818401526020810190506118fc565b50505050905090810190601f1680156119445780820380516001836020036101000a031916815260200191505b50925050506040516020818303038152906040528051906020012060001c9050601260008673ffffffffffffffffffffffffffffffffffffffff1673ffffffffffffffffffffffffffffffffffffffff16815260200190815260200160002060008281526020019081526020016000208290806001815401808255809150506001900390600052602060002001600090919091909150555050505050565b60006119ed826120a3565b90508073ffffffffffffffffffffffffffffffffffffffff168373ffffffffffffffffffffffffffffffffffffffff161415611a74576040517f08c379a00000000000000000000000000000000000000000000000000000000081526004018080602001828103825260218152602001806144ff6021913960400191505060405180910390fd5b8073ffffffffffffffffffffffffffffffffffffffff16611a93612cf3565b73ffffffffffffffffffffffffffffffffffffffff161480611ac25750611ac181611abc612cf3565b612c42565b5b611b17576040517f08c379a00000000000000000000000000000000000000000000000000000000081526004018080602001828103825260388152602001806143a26038913960400191505060405180910390fd5b611b218383612cfb565b505050565b6000826040516020018080602001828103825283818151815260200191508051906020019080838360005b83811015611b6c578082015181840152602081019050611b51565b50505050905090810190601f168015611b995780820380516001836020036101000a031916815260200191505b50925050506040516020818303038152906040528051906020012060001c9050601481908060018154018082558091505060019003906000526020600020016000909190919091505580826040518082805190602001908083835b60208310611c175780518252602082019150602081019050602083039250611bf4565b6001836020036101000a0380198251168184511680821785525050505050509050019150506040518091039020846040518082805190602001908083835b60208310611c785780518252602082019150602081019050602083039250611c55565b6001836020036101000a03801982511681845116808217855250505050505090500191505060405180910390207f84a438deb6612b2a31cdecd5796f28fffa1aa9eb1fe963b52ba514d892c019f060405160405180910390a4505050565b6000611ce26002612db4565b905090565b6000600b600083815260200190815260200160002060009054906101000a900473ffffffffffffffffffffffffffffffffffffffff1690508373ffffffffffffffffffffffffffffffffffffffff168173ffffffffffffffffffffffffffffffffffffffff1614611d5757600080fd5b600073ffffffffffffffffffffffffffffffffffffffff168373ffffffffffffffffffffffffffffffffffffffff161415611d9157600080fd5b611d9b8383612dc9565b50505050565b6000601060008373ffffffffffffffffffffffffffffffffffffffff1673ffffffffffffffffffffffffffffffffffffffff168152602001908152602001600020549050919050565b6000611e3d82600160008673ffffffffffffffffffffffffffffffffffffffff1673ffffffffffffffffffffffffffffffffffffffff168152602001908152602001600020612e7590919063ffffffff16565b905092915050565b611e60838383604051806020016040528060008152506128b3565b505050565b600080611e7c836002612e8f90919063ffffffff16565b50905080915050919050565b600080826040516020018080602001828103825283818151815260200191508051906020019080838360005b83811015611ecf578082015181840152602081019050611eb4565b50505050905090810190601f168015611efc5780820380516001836020036101000a031916815260200191505b50925050506040516020818303038152906040528051906020012060001c90506000601260008773ffffffffffffffffffffffffffffffffffffffff1673ffffffffffffffffffffffffffffffffffffffff1681526020019081526020016000206000838152602001908152602001600020805490509050600060156000848152602001908152602001600020805490509050808214611fa2576000935050505061209c565b6060611fe3866040518060400160405280600481526020017f2e6a706700000000000000000000000000000000000000000000000000000000815250612ebb565b9050612093868961208e600a8054600181600116156101000203166002900480601f0160208091040260200160405190810160405280929190818152602001828054600181600116156101000203166002900480156120835780601f1061205857610100808354040283529160200191612083565b820191906000526020600020905b81548152906001019060200180831161206657829003601f168201915b505050505085612ebb565b61277c565b60019450505050505b9392505050565b60006120d382604051806060016040528060298152602001614404602991396002612f839092919063ffffffff16565b9050919050565b601260205282600052604060002060205281600052604060002081815481106120ff57fe5b9060005260206000200160009250925050505481565b606060098054600181600116156101000203166002900480601f0160208091040260200160405190810160405280929190818152602001828054600181600116156101000203166002900480156121ad5780601f10612182576101008083540402835291602001916121ad565b820191906000526020600020905b81548152906001019060200180831161219057829003601f168201915b5050505050905090565b60008073ffffffffffffffffffffffffffffffffffffffff168273ffffffffffffffffffffffffffffffffffffffff16141561223e576040517f08c379a000000000000000000000000000000000000000000000000000000000815260040180806020018281038252602a8152602001806143da602a913960400191505060405180910390fd5b612285600160008473ffffffffffffffffffffffffffffffffffffffff1673ffffffffffffffffffffffffffffffffffffffff168152602001908152602001600020612fa2565b9050919050565b600080836040516020018080602001828103825283818151815260200191508051906020019080838360005b838110156122d35780820151818401526020810190506122b8565b50505050905090810190601f1680156123005780820380516001836020036101000a031916815260200191505b50925050506040516020818303038152906040528051906020012060001c90506000836040516020018080602001828103825283818151815260200191508051906020019080838360005b8381101561236657808201518184015260208101905061234b565b50505050905090810190601f1680156123935780820380516001836020036101000a031916815260200191505b50925050506040516020818303038152906040528051906020012060001c90506000601260008873ffffffffffffffffffffffffffffffffffffffff1673ffffffffffffffffffffffffffffffffffffffff168152602001908152602001600020600083815260200190815260200160002080549050905060005b818110156124cd576000601260008a73ffffffffffffffffffffffffffffffffffffffff1673ffffffffffffffffffffffffffffffffffffffff1681526020019081526020016000206000858152602001908152602001600020828154811061247357fe5b9060005260206000200154604051602001808281526020019150506040516020818303038152906040528051906020012060001c9050808514156124bf576001955050505050506124d6565b50808060010191505061240e565b50600093505050505b9392505050565b601360009054906101000a900473ffffffffffffffffffffffffffffffffffffffff1681565b606060078054600181600116156101000203166002900480601f01602080910402602001604051908101604052809291908181526020018280546001816001161561010002031660029004801561259b5780601f106125705761010080835404028352916020019161259b565b820191906000526020600020905b81548152906001019060200180831161257e57829003601f168201915b5050505050905090565b601481815481106125b257fe5b906000526020600020016000915090505481565b6125ce612cf3565b73ffffffffffffffffffffffffffffffffffffffff168273ffffffffffffffffffffffffffffffffffffffff16141561266f576040517f08c379a00000000000000000000000000000000000000000000000000000000081526004018080602001828103825260198152602001807f4552433732313a20617070726f766520746f2063616c6c65720000000000000081525060200191505060405180910390fd5b806005600061267c612cf3565b73ffffffffffffffffffffffffffffffffffffffff1673ffffffffffffffffffffffffffffffffffffffff16815260200190815260200160002060008473ffffffffffffffffffffffffffffffffffffffff1673ffffffffffffffffffffffffffffffffffffffff16815260200190815260200160002060006101000a81548160ff0219169083151502179055508173ffffffffffffffffffffffffffffffffffffffff16612729612cf3565b73ffffffffffffffffffffffffffffffffffffffff167f17307eab39ab6107e8899845ad3d59bd9653f200f220920489ca2b5937696c318360405180821515815260200191505060405180910390a35050565b600080846040516020018080602001828103825283818151815260200191508051906020019080838360005b838110156127c35780820151818401526020810190506127a8565b50505050905090810190601f1680156127f05780820380516001836020036101000a031916815260200191505b50925050506040516020818303038152906040528051906020012060001c9050600084604051602001808273ffffffffffffffffffffffffffffffffffffffff1681526020019150506040516020818303038152906040528051906020012060001c905080820192506128633384612fb7565b60146011600084815260200190815260200160002054116128895761288883856130c7565b5b60016011600084815260200190815260200160002060008282540192505081905550505050505050565b6128c46128be612cf3565b83613151565b612919576040517f08c379a00000000000000000000000000000000000000000000000000000000081526004018080602001828103825260318152602001806145206031913960400191505060405180910390fd5b61292584848484613245565b50505050565b606061293682612cd6565b61298b576040517f08c379a000000000000000000000000000000000000000000000000000000000815260040180806020018281038252602f8152602001806144d0602f913960400191505060405180910390fd5b6060600860008481526020019081526020016000208054600181600116156101000203166002900480601f016020809104026020016040519081016040528092919081815260200182805460018160011615610100020316600290048015612a345780601f10612a0957610100808354040283529160200191612a34565b820191906000526020600020905b815481529060010190602001808311612a1757829003601f168201915b50505050509050600060098054600181600116156101000203166002900490501415612a635780915050612c0f565b600081511115612b3c576009816040516020018083805460018160011615610100020316600290048015612ace5780601f10612aac576101008083540402835291820191612ace565b820191906000526020600020905b815481529060010190602001808311612aba575b505082805190602001908083835b60208310612aff5780518252602082019150602081019050602083039250612adc565b6001836020036101000a03801982511681845116808217855250505050505090500192505050604051602081830303815290604052915050612c0f565b6009612b47846132b7565b6040516020018083805460018160011615610100020316600290048015612ba55780601f10612b83576101008083540402835291820191612ba5565b820191906000526020600020905b815481529060010190602001808311612b91575b505082805190602001908083835b60208310612bd65780518252602082019150602081019050602083039250612bb3565b6001836020036101000a038019825116818451168082178552505050505050905001925050506040516020818303038152906040529150505b919050565b60156020528160005260406000208181548110612c2d57fe5b90600052602060002001600091509150505481565b6000600560008473ffffffffffffffffffffffffffffffffffffffff1673ffffffffffffffffffffffffffffffffffffffff16815260200190815260200160002060008373ffffffffffffffffffffffffffffffffffffffff1673ffffffffffffffffffffffffffffffffffffffff16815260200190815260200160002060009054906101000a900460ff16905092915050565b6000612cec8260026133fe90919063ffffffff16565b9050919050565b600033905090565b816004600083815260200190815260200160002060006101000a81548173ffffffffffffffffffffffffffffffffffffffff021916908373ffffffffffffffffffffffffffffffffffffffff160217905550808273ffffffffffffffffffffffffffffffffffffffff16612d6e836120a3565b73ffffffffffffffffffffffffffffffffffffffff167f8c5be1e5ebec7d5bd14f71427d1e84f3dd0314c0f7b2291e5b200ac8c7c3b92560405160405180910390a45050565b6000612dc282600001613418565b9050919050565b6000600b600083815260200190815260200160002060009054906101000a900473ffffffffffffffffffffffffffffffffffffffff169050612e0b8183613429565b612e158383613554565b818373ffffffffffffffffffffffffffffffffffffffff168273ffffffffffffffffffffffffffffffffffffffff167fddf252ad1be2c89b69c2b068fc378daa952ba7f163c4a11628f55a4df523b3ef60405160405180910390a4505050565b6000612e848360000183613640565b60001c905092915050565b600080600080612ea286600001866136c3565b915091508160001c8160001c9350935050509250929050565b606082826040516020018083805190602001908083835b60208310612ef55780518252602082019150602081019050602083039250612ed2565b6001836020036101000a03801982511681845116808217855250505050505090500182805190602001908083835b60208310612f465780518252602082019150602081019050602083039250612f23565b6001836020036101000a03801982511681845116808217855250505050505090500192505050604051602081830303815290604052905092915050565b6000612f96846000018460001b8461375c565b60001c90509392505050565b6000612fb082600001613852565b9050919050565b600073ffffffffffffffffffffffffffffffffffffffff168273ffffffffffffffffffffffffffffffffffffffff161415612ff157600080fd5b600073ffffffffffffffffffffffffffffffffffffffff16600b600083815260200190815260200160002060009054906101000a900473ffffffffffffffffffffffffffffffffffffffff1673ffffffffffffffffffffffffffffffffffffffff161461305d57600080fd5b6130678282613554565b808273ffffffffffffffffffffffffffffffffffffffff16600073ffffffffffffffffffffffffffffffffffffffff167fddf252ad1be2c89b69c2b068fc378daa952ba7f163c4a11628f55a4df523b3ef60405160405180910390a45050565b6130d082612cd6565b613125576040517f08c379a000000000000000000000000000000000000000000000000000000000815260040180806020018281038252602c81526020018061447b602c913960400191505060405180910390fd5b8060086000848152602001908152602001600020908051906020019061314c929190614260565b505050565b600061315c82612cd6565b6131b1576040517f08c379a000000000000000000000000000000000000000000000000000000000815260040180806020018281038252602c815260200180614376602c913960400191505060405180910390fd5b60006131bc836120a3565b90508073ffffffffffffffffffffffffffffffffffffffff168473ffffffffffffffffffffffffffffffffffffffff16148061322b57508373ffffffffffffffffffffffffffffffffffffffff16613213846117a3565b73ffffffffffffffffffffffffffffffffffffffff16145b8061323c575061323b8185612c42565b5b91505092915050565b613250848484613863565b61325c84848484613aa6565b6132b1576040517f08c379a00000000000000000000000000000000000000000000000000000000081526004018080602001828103825260328152602001806143206032913960400191505060405180910390fd5b50505050565b606060008214156132ff576040518060400160405280600181526020017f300000000000000000000000000000000000000000000000000000000000000081525090506133f9565b600082905060005b60008214613329578080600101915050600a828161332157fe5b049150613307565b60608167ffffffffffffffff8111801561334257600080fd5b506040519080825280601f01601f1916602001820160405280156133755781602001600182028036833780820191505090505b50905060006001830390508593505b600084146133f157600a848161339657fe5b0660300160f81b828280600190039350815181106133b057fe5b60200101907effffffffffffffffffffffffffffffffffffffffffffffffffffffffffffff1916908160001a905350600a84816133e957fe5b049350613384565b819450505050505b919050565b6000613410836000018360001b613cbf565b905092915050565b600081600001805490509050919050565b8173ffffffffffffffffffffffffffffffffffffffff16600b600083815260200190815260200160002060009054906101000a900473ffffffffffffffffffffffffffffffffffffffff1673ffffffffffffffffffffffffffffffffffffffff161461349457600080fd5b6001601060008473ffffffffffffffffffffffffffffffffffffffff1673ffffffffffffffffffffffffffffffffffffffff1681526020019081526020016000205403601060008473ffffffffffffffffffffffffffffffffffffffff1673ffffffffffffffffffffffffffffffffffffffff16815260200190815260200160002081905550600b600082815260200190815260200160002060006101000a81549073ffffffffffffffffffffffffffffffffffffffff02191690555050565b81600b600083815260200190815260200160002060006101000a81548173ffffffffffffffffffffffffffffffffffffffff021916908373ffffffffffffffffffffffffffffffffffffffff1602179055506135f96001601060008573ffffffffffffffffffffffffffffffffffffffff1673ffffffffffffffffffffffffffffffffffffffff16815260200190815260200160002054613ce290919063ffffffff16565b601060008473ffffffffffffffffffffffffffffffffffffffff1673ffffffffffffffffffffffffffffffffffffffff168152602001908152602001600020819055505050565b6000818360000180549050116136a1576040517f08c379a00000000000000000000000000000000000000000000000000000000081526004018080602001828103825260228152602001806142fe6022913960400191505060405180910390fd5b8260000182815481106136b057fe5b9060005260206000200154905092915050565b60008082846000018054905011613725576040517f08c379a000000000000000000000000000000000000000000000000000000000815260040180806020018281038252602281526020018061442d6022913960400191505060405180910390fd5b600084600001848154811061373657fe5b906000526020600020906002020190508060000154816001015492509250509250929050565b60008084600101600085815260200190815260200160002054905060008114158390613823576040517f08c379a00000000000000000000000000000000000000000000000000000000081526004018080602001828103825283818151815260200191508051906020019080838360005b838110156137e85780820151818401526020810190506137cd565b50505050905090810190601f1680156138155780820380516001836020036101000a031916815260200191505b509250505060405180910390fd5b5084600001600182038154811061383657fe5b9060005260206000209060020201600101549150509392505050565b600081600001805490509050919050565b8273ffffffffffffffffffffffffffffffffffffffff16613883826120a3565b73ffffffffffffffffffffffffffffffffffffffff16146138ef576040517f08c379a00000000000000000000000000000000000000000000000000000000081526004018080602001828103825260298152602001806144a76029913960400191505060405180910390fd5b600073ffffffffffffffffffffffffffffffffffffffff168273ffffffffffffffffffffffffffffffffffffffff161415613975576040517f08c379a00000000000000000000000000000000000000000000000000000000081526004018080602001828103825260248152602001806143526024913960400191505060405180910390fd5b613980838383613d6a565b61398b600082612cfb565b6139dc81600160008673ffffffffffffffffffffffffffffffffffffffff1673ffffffffffffffffffffffffffffffffffffffff168152602001908152602001600020613d6f90919063ffffffff16565b50613a2e81600160008573ffffffffffffffffffffffffffffffffffffffff1673ffffffffffffffffffffffffffffffffffffffff168152602001908152602001600020613d8990919063ffffffff16565b50613a4581836002613da39092919063ffffffff16565b50808273ffffffffffffffffffffffffffffffffffffffff168473ffffffffffffffffffffffffffffffffffffffff167fddf252ad1be2c89b69c2b068fc378daa952ba7f163c4a11628f55a4df523b3ef60405160405180910390a4505050565b6000613ac78473ffffffffffffffffffffffffffffffffffffffff16613dd8565b613ad45760019050613cb7565b6060613c3e63150b7a0260e01b613ae9612cf3565b888787604051602401808573ffffffffffffffffffffffffffffffffffffffff1681526020018473ffffffffffffffffffffffffffffffffffffffff16815260200183815260200180602001828103825283818151815260200191508051906020019080838360005b83811015613b6d578082015181840152602081019050613b52565b50505050905090810190601f168015613b9a5780820380516001836020036101000a031916815260200191505b5095505050505050604051602081830303815290604052907bffffffffffffffffffffffffffffffffffffffffffffffffffffffff19166020820180517bffffffffffffffffffffffffffffffffffffffffffffffffffffffff8381831617835250505050604051806060016040528060328152602001614320603291398773ffffffffffffffffffffffffffffffffffffffff16613deb9092919063ffffffff16565b90506000818060200190516020811015613c5757600080fd5b8101908080519060200190929190505050905063150b7a0260e01b7bffffffffffffffffffffffffffffffffffffffffffffffffffffffff1916817bffffffffffffffffffffffffffffffffffffffffffffffffffffffff191614925050505b949350505050565b600080836001016000848152602001908152602001600020541415905092915050565b600080828401905083811015613d60576040517f08c379a000000000000000000000000000000000000000000000000000000000815260040180806020018281038252601b8152602001807f536166654d6174683a206164646974696f6e206f766572666c6f77000000000081525060200191505060405180910390fd5b8091505092915050565b505050565b6000613d81836000018360001b613e03565b905092915050565b6000613d9b836000018360001b613eeb565b905092915050565b6000613dcf846000018460001b8473ffffffffffffffffffffffffffffffffffffffff1660001b613f5b565b90509392505050565b600080823b905060008111915050919050565b6060613dfa8484600085614037565b90509392505050565b60008083600101600084815260200190815260200160002054905060008114613edf5760006001820390506000600186600001805490500390506000866000018281548110613e4e57fe5b9060005260206000200154905080876000018481548110613e6b57fe5b9060005260206000200181905550600183018760010160008381526020019081526020016000208190555086600001805480613ea357fe5b60019003818190600052602060002001600090559055866001016000878152602001908152602001600020600090556001945050505050613ee5565b60009150505b92915050565b6000613ef7838361423d565b613f50578260000182908060018154018082558091505060019003906000526020600020016000909190919091505582600001805490508360010160008481526020019081526020016000208190555060019050613f55565b600090505b92915050565b600080846001016000858152602001908152602001600020549050600081141561400257846000016040518060400160405280868152602001858152509080600181540180825580915050600190039060005260206000209060020201600090919091909150600082015181600001556020820151816001015550508460000180549050856001016000868152602001908152602001600020819055506001915050614030565b8285600001600183038154811061401557fe5b90600052602060002090600202016001018190555060009150505b9392505050565b606061404285613dd8565b6140b4576040517f08c379a000000000000000000000000000000000000000000000000000000000815260040180806020018281038252601d8152602001807f416464726573733a2063616c6c20746f206e6f6e2d636f6e747261637400000081525060200191505060405180910390fd5b600060608673ffffffffffffffffffffffffffffffffffffffff1685876040518082805190602001908083835b6020831061410457805182526020820191506020810190506020830392506140e1565b6001836020036101000a03801982511681845116808217855250505050505090500191505060006040518083038185875af1925050503d8060008114614166576040519150601f19603f3d011682016040523d82523d6000602084013e61416b565b606091505b50915091508115614180578092505050614235565b6000815111156141935780518082602001fd5b836040517f08c379a00000000000000000000000000000000000000000000000000000000081526004018080602001828103825283818151815260200191508051906020019080838360005b838110156141fa5780820151818401526020810190506141df565b50505050905090810190601f1680156142275780820380516001836020036101000a031916815260200191505b509250505060405180910390fd5b949350505050565b600080836001016000848152602001908152602001600020541415905092915050565b828054600181600116156101000203166002900490600052602060002090601f016020900481019282601f106142a157805160ff19168380011785556142cf565b828001600101855582156142cf579182015b828111156142ce5782518255916020019190600101906142b3565b5b5090506142dc91906142e0565b5090565b5b808211156142f95760008160009055506001016142e1565b509056fe456e756d657261626c655365743a20696e646578206f7574206f6620626f756e64734552433732313a207472616e7366657220746f206e6f6e20455243373231526563656976657220696d706c656d656e7465724552433732313a207472616e7366657220746f20746865207a65726f20616464726573734552433732313a206f70657261746f7220717565727920666f72206e6f6e6578697374656e7420746f6b656e4552433732313a20617070726f76652063616c6c6572206973206e6f74206f776e6572206e6f7220617070726f76656420666f7220616c6c4552433732313a2062616c616e636520717565727920666f7220746865207a65726f20616464726573734552433732313a206f776e657220717565727920666f72206e6f6e6578697374656e7420746f6b656e456e756d657261626c654d61703a20696e646578206f7574206f6620626f756e64734552433732313a20617070726f76656420717565727920666f72206e6f6e6578697374656e7420746f6b656e4552433732314d657461646174613a2055524920736574206f66206e6f6e6578697374656e7420746f6b656e4552433732313a207472616e73666572206f6620746f6b656e2074686174206973206e6f74206f776e4552433732314d657461646174613a2055524920717565727920666f72206e6f6e6578697374656e7420746f6b656e4552433732313a20617070726f76616c20746f2063757272656e74206f776e65724552433732313a207472616e736665722063616c6c6572206973206e6f74206f776e6572206e6f7220617070726f766564a2646970667358221220b1ffc502760647d56ddc770c10cd8b88ce1198d910e620bc2392697e4864520564736f6c634300060c0033",
  "immutableReferences": {},
  "source": "pragma solidity ^0.6.0;\r\n\r\nimport \"@openzeppelin/contracts/token/ERC721/ERC721.sol\";\r\n\r\ncontract RemainToken is ERC721 {\r\n    using SafeMath for uint256;\r\n\r\n    string private _baseURI = \"http://localhost:3000/\";\r\n\r\n    //Each token belongs to who\r\n    mapping (uint256 => address) internal idToOwner;\r\n\r\n    //All tokens\r\n    uint256[] internal allTokens;\r\n    \r\n    //Each address has how many tokens\r\n    mapping (address => uint256[]) internal ownedTokens;\r\n\r\n    //Mapping from toekn ID to index of the owner tokens list\r\n    mapping(uint256 => uint256) internal ownedTokensIndex;\r\n\r\n    //Mapping from token id to position in the allTokens array\r\n    mapping(uint256 => uint256) internal allTokensIndex;\r\n\r\n    //how many ERC721 tokens that we actually own\r\n    mapping(address=>uint256) internal ownedTokensCount;\r\n\r\n    //each course number of tokens\r\n    mapping(uint256 => uint256) internal coursesTokens;\r\n\r\n    event Transfer(\r\n        address indexed _from,\r\n        address indexed _to,\r\n        uint256 indexed _tokenId\r\n    );\r\n\r\n    event Course(\r\n        string indexed _name,\r\n        string indexed _description,\r\n        uint256 indexed _id\r\n    );\r\n\r\n    event Locations(\r\n        string indexed _course,\r\n        string indexed _locname,\r\n        string  _description,\r\n        uint256 indexed _id\r\n    );\r\n\r\n    mapping(address => mapping(uint256=>uint256[])) public userLocationVerified;\r\n\r\n    address public owner;\r\n\r\n    uint256[] public courses;\r\n\r\n    mapping(uint256=>uint256[]) public courseToLocations;\r\n\r\n    constructor() ERC721(\"RemainToken\",\"REMAINTOKEN\") public {\r\n        owner = msg.sender;\r\n    }\r\n\r\n    function append(string memory a, string memory b) internal pure returns (string memory) {\r\n\r\n    return string(abi.encodePacked(a, b));\r\n\r\n    }\r\n\r\n    function registerCourse( string memory course, string memory description) external {\r\n        uint256 courseHash = uint256(keccak256(abi.encode(course)));\r\n        courses.push(courseHash);\r\n        emit Course(course,description,courseHash);\r\n    }\r\n\r\n    function registerLocations(string memory  _course, string memory _location, string memory description) external {\r\n        uint256 courseHash = uint256(keccak256(abi.encode(_course)));\r\n        uint256 locNumber = uint256(keccak256(abi.encode(_location)));\r\n        courseToLocations[courseHash].push(locNumber);\r\n        emit Locations(_course, _location,description,locNumber);\r\n    }\r\n\r\n    function verifyUserLocation(address  _user, string memory _location, string memory _course) external {\r\n        uint256 locNumber = uint256(keccak256(abi.encode(_location)));\r\n        uint256 courseHash = uint256(keccak256(abi.encode(_course)));\r\n        userLocationVerified[_user][courseHash].push(locNumber); \r\n    }\r\n\r\n    function getUserLocationVerified(address _user, string memory _location, string memory _course) external view returns(bool) {\r\n        uint256 locNumber = uint256(keccak256(abi.encode(_location)));\r\n        uint256 courseHash = uint256(keccak256(abi.encode(_course)));\r\n        uint256 length = userLocationVerified[_user][courseHash].length;\r\n\r\n        for(uint i=0; i < length; i++ ) {\r\n            uint256 elementHash = uint256(keccak256(abi.encode(userLocationVerified[_user][courseHash][i])));\r\n            if (locNumber == elementHash) {\r\n                return true;\r\n            }\r\n        }\r\n\r\n        return false;\r\n    \r\n    }\r\n\r\n    function verifyUserCouseToMintToken(address _user, string memory _location, string memory _course) external returns(bool){\r\n        uint256 courseHash = uint256(keccak256(abi.encode(_course)));\r\n    \r\n        uint256 length = userLocationVerified[_user][courseHash].length;\r\n        uint256 savedLength = courseToLocations[courseHash].length;      \r\n        \r\n        if(length != savedLength) {\r\n            return false;\r\n        }\r\n\r\n        string memory uname = append(_course,\".jpg\");\r\n\r\n        mint(_course,_user,append(_baseURI,(uname)));\r\n        return true;\r\n        }\r\n\r\n    \r\n\r\n    function mint(string memory _course, address _user, string memory _tokenURI ) public  {\r\n\r\n        uint256 _id;\r\n        \r\n        uint256 courseHash = uint256(keccak256(abi.encode(_course)));\r\n        uint256 userHash = uint256(keccak256(abi.encode(_user)));\r\n               \r\n         _id = courseHash + userHash;\r\n\r\n        _mint(msg.sender,_id);\r\n        if(coursesTokens[courseHash] <= 20 ) {\r\n            _setTokenURI(_id, _tokenURI);\r\n        }        \r\n        coursesTokens[courseHash] += 1;\r\n        }\r\n\r\n    function _mint( address _to,uint256 _tokenId) internal virtual override{\r\n        require(_to != address(0));\r\n        require(idToOwner[_tokenId] == address(0));\r\n\r\n        _addRemainToken(_to, _tokenId);\r\n\r\n        emit Transfer(address(0), _to, _tokenId);\r\n    }\r\n\r\n    function transferFrom(address _from, address _to, uint256 _tokenId) public override  {\r\n        address tokenOwner = idToOwner[_tokenId];\r\n        require(tokenOwner==_from);\r\n        require(_to != address(0));\r\n        _transfer(_to, _tokenId);\r\n    }\r\n\r\n    function _transfer(address _to, uint256 _tokenId) internal {\r\n        address from = idToOwner[_tokenId];\r\n        _removeRemainToken(from, _tokenId);\r\n        _addRemainToken(_to, _tokenId);\r\n        emit Transfer(from, _to, _tokenId);\r\n\r\n    }\r\n\r\n    function _removeRemainToken(address _from,uint256 _tokenId) internal {\r\n        require(idToOwner[_tokenId] == _from);\r\n        \r\n        ownedTokensCount[_from] = ownedTokensCount[_from] -1;\r\n        delete idToOwner[_tokenId];  \r\n    }\r\n\r\n    function _addRemainToken(address _to, uint256 _tokenId) internal {\r\n        idToOwner[_tokenId] = _to;\r\n        ownedTokensCount[_to] = ownedTokensCount[_to].add(1);\r\n    }\r\n\r\n    function _getOwnedTokensCount(address _owner) public view returns(uint256) {\r\n        return ownedTokensCount[_owner];\r\n    }\r\n\r\n}",
  "sourcePath": "C:/Users/BaeJunho/Desktop/Token/contracts/RemainToken.sol",
  "compiler": {
    "name": "solc",
    "version": "0.6.12+commit.27d51765.Emscripten.clang"
  },
  "schemaVersion": "3.2.5",
  "updatedAt": "2020-10-06T19:53:42.972Z",
  "networkType": "ethereum",
  "devdoc": {
    "kind": "dev",
    "methods": {
      "approve(address,uint256)": {
        "details": "See {IERC721-approve}."
      },
      "balanceOf(address)": {
        "details": "See {IERC721-balanceOf}."
      },
      "baseURI()": {
        "details": "Returns the base URI set via {_setBaseURI}. This will be automatically added as a prefix in {tokenURI} to each token's URI, or to the token ID if no specific URI is set for that token ID."
      },
      "getApproved(uint256)": {
        "details": "See {IERC721-getApproved}."
      },
      "isApprovedForAll(address,address)": {
        "details": "See {IERC721-isApprovedForAll}."
      },
      "name()": {
        "details": "See {IERC721Metadata-name}."
      },
      "ownerOf(uint256)": {
        "details": "See {IERC721-ownerOf}."
      },
      "safeTransferFrom(address,address,uint256)": {
        "details": "See {IERC721-safeTransferFrom}."
      },
      "safeTransferFrom(address,address,uint256,bytes)": {
        "details": "See {IERC721-safeTransferFrom}."
      },
      "setApprovalForAll(address,bool)": {
        "details": "See {IERC721-setApprovalForAll}."
      },
      "supportsInterface(bytes4)": {
        "details": "See {IERC165-supportsInterface}. Time complexity O(1), guaranteed to always use less than 30 000 gas."
      },
      "symbol()": {
        "details": "See {IERC721Metadata-symbol}."
      },
      "tokenByIndex(uint256)": {
        "details": "See {IERC721Enumerable-tokenByIndex}."
      },
      "tokenOfOwnerByIndex(address,uint256)": {
        "details": "See {IERC721Enumerable-tokenOfOwnerByIndex}."
      },
      "tokenURI(uint256)": {
        "details": "See {IERC721Metadata-tokenURI}."
      },
      "totalSupply()": {
        "details": "See {IERC721Enumerable-totalSupply}."
      }
    },
    "version": 1
  },
  "userdoc": {
    "kind": "user",
    "methods": {},
    "version": 1
  }
}